:020000040800F2
:10000000D80F0020ED2E00087502000877020008C6
:10001000790200087B0200087D0200080000000051
:100020000000000000000000000000007F02000847
:100030008102000800000000830200088502000819
:10004000072F0008072F0008072F0008072F0008B8
:10005000072F0008072F0008072F0008072F0008A8
:10006000072F0008072F0008072F00088702000845
:10007000072F0008072F0008072F0008072F000888
:10008000072F0008072F0008072F0008072F000878
:10009000072F0008072F0008072F0008072F000868
:1000A000072F0008A3360008072F0008072F0008B5
:1000B0001D370008072F000845310008072F0008EA
:1000C000072F0008072F0008072F0008072F000838
:1000D000072F0008613D0008492F00088D3D0008EA
:1000E000072F0008072F0008072F000800F002F86C
:1000F00000F090F80AA090E8000C82448344AAF132
:100100000107DA4501D100F085F8AFF2090EBAE82F
:100110000F0013F0010F18BFFB1A43F0010318473B
:10012000948C0000B48C0000103A24BF78C878C1C9
:10013000FAD8520724BF30C830C144BF04680C60ED
:10014000704700000023002400250026103A28BF35
:1001500078C1FBD8520728BF30C148BF0B60704739
:100160006E2904F09B81702903F0D787662906F079
:100170005387652906F05087672906F04D87612966
:1001800006F04C8703681B0A28BF41F080016929EB
:1001900003F0B286642903F0AF86752903F0AC86BC
:1001A0006F2903F06587782903F0A387E92904F014
:1001B000E581E42904F0E281F52904F0DF81EF29EB
:1001C00003F06287F82903F0A2870368DB0928BFE0
:1001D00041F08001632904F09C81732904F0A1811E
:1001E000E32904F0BF81F32904F0C48100207047A3
:1001F0001FB504F02BFE04000020002106F06CF86F
:10020000401C60600020002106F07CF8E0601FBD0B
:1002100010B510BD04F0F4FD1146FFF7E9FF00F042
:1002200009F804F0C5FE03B4FFF7F2FF03BC03F0C6
:1002300067FC000003F0F8FB03F042FC4FF4E130F0
:1002400003F086FC4FF4165002F0ECFE03F064FB62
:1002500003F096FB0121064801F069F84FF47A7427
:1002600002F0DFFF03F046F8204603F00BFCF7E74F
:10027000002401407047FEE7FEE7FEE7FEE7704717
:100280007047704770472DE9F05F022001F035FAA2
:1002900000287DD0022001F03EFA504C2078002842
:1002A00076D14F480188A1804788E78086882681DB
:1002B000084606F0C7FADFF82C914FF0663B5A4625
:1002C0004B4606F00FFB6FF00B08424606F0DAFED5
:1002D00006F02EF80546E06007EB8700000B06F0FD
:1002E0003DFE2061304606F0ADFA5A464B4606F018
:1002F000F9FA424606F0C6FE06F01AF86061284692
:1003000006F000FE884605465A464B4606F01EFC9F
:1003100007460E4628464146334A344B06F0E2FA79
:100320003A46334606F0F2F8314A324B05F0D2FA3B
:1003300006F044FA04F118056070286806F0E2FD42
:1003400081468A46A86806F0DDFD0646884668684C
:1003500006F0D8FD07460D46206906F0D3FD0022C1
:10036000254B06F0D3F83A462B4606F0E1FC43460F
:10037000324606F0CBF84A46534606F00BF80246E2
:100380000B4600201D4905F0A5FA06F017FA00E01B
:1003900022E0A070606906F0B5FD884605465A4621
:1003A000174B06F09FFA0022164B06F0CFFB0746CC
:1003B0000E4628464146144A144B06F093FA3A4634
:1003C000334606F0A3F8124A124B05F083FA06F002
:1003D000F5F9E07001202070BDE8F09F00000020DA
:1003E0006400002066660A40713D0AD7A370414050
:1003F00004734B7001FA08400000214000002440C3
:100400006666144000803940FF73982F2FE67940CC
:1004100014D044D8F0F4E43F10B501F0FFFC012003
:1004200001F060FD212001F02AFD0028FAD0102003
:1004300001F090F9022001F07DF9002001F06CFD3F
:10044000002001F077FD4FF4806001F06CFD4FF467
:100450006011002001F049FD012001F04EFD39201E
:1004600001F00DFD0028FAD0022001F049FD00BF87
:1004700001F04DFD0828FBD10121BDE810401D20F1
:1004800001F0D7BD0CB500214B48019100910268E5
:1004900042F4803202604FF4A063026802F400323A
:1004A0000092019A521C0192009A12B9019A9A4242
:1004B000F3D10268920333D5012100913F490A68C4
:1004C00042F010020A600A6822F003020A600A6819
:1004D00042F002020A60416841604168416041683F
:1004E00041F480614160416821F47C1141604168C0
:1004F00041F4E8114160016841F0807101600168D8
:100500008901FCD5416821F003014160416841F057
:10051000020141604168C1F381010229FAD10CBD99
:1005200000910CBD244810B5016841F00101016043
:100530004168234A114041600168224A114001602C
:10054000016821F480210160416821F4FE014160CD
:100550004FF41F018160FFF795FF1B494FF00060CA
:10056000086010BD144910B54868184A10F00C0313
:10057000174803D0042B01D0082B0AD00260496829
:10058000134AC1F30311121D515C0268CA40026094
:1005900010BD4A684B6802F470124FF0020413F465
:1005A000803F04EB924202D04B689B0301D5094B7C
:1005B00000E0064B5A43E1E70010024000200240F1
:1005C0000000FFF8FFFFF6FE08ED00E000127A00E1
:1005D0002400002000093D00C0F34511C20AC002FA
:1005E00000EB4110104480B270472DE9FF5F0746D1
:1005F00014460E4600256042032101EB400858E0F6
:1006000006EB040907EB050B1FFA89F11FFA8BF0C3
:10061000039A00F08BFDA7EB050A1FFA89F11FFA78
:100620008AF0039A00F082FDA6EB04091FFA89F113
:100630001FFA8BF0039A00F079FD1FFA89F11FFA77
:100640008AF0039A00F072FD06EB050907EB040B34
:100650001FFA89F11FFA8BF0039A00F067FDA7EBF0
:10066000040A1FFA89F11FFA8AF0039A00F05EFD6E
:10067000A6EB05091FFA89F11FFA8BF0039A00F027
:1006800055FD1FFA89F11FFA8AF0039A00F04EFD1A
:10069000B8F1000F04DA08EB850000F1060806E067
:1006A000291B08EB8100641E00F10A08A4B26D1C2E
:1006B000ADB2A542A4D3A54242D106EB040907EB93
:1006C00005081FFA89F11FFA88F0039A00F02EFD41
:1006D0001FFA89F11FFA88F0039A00F027FDA6EBB4
:1006E00004091FFA89F11FFA88F0039A00F01EFD31
:1006F000781B1FFA89F180B2039A00F017FD06EB10
:10070000050907EB04081FFA89F11FFA88F0039A1C
:1007100000F00CFD3C1B1FFA89F1A0B2039A00F017
:1007200005FD751BA9B21FFA88F0039A00F0FEFCC4
:10073000039A04B0A9B2A0B2BDE8F05F00F0F6BC25
:10074000BDE8FF9F2DE9F84F1C4615460E46804632
:1007500000F0E9FCB5EB0805A4EB06044FF0FF3010
:1007600002D44FF0010B01E083466D42002C02DB06
:100770004FF0010901E08146644268004FEA440AF3
:100780000090A54219DDAAEB0504002711E03146CF
:1007900040460A9A00F0CAFC002C04DB0098241A98
:1007A00006EB090086B208EB0B0054441FFA80F8F0
:1007B0007F1CAF42EBDDBDE8F88F0098051B0027DA
:1007C00012E0314640460A9A00F0B0FC002D05DBED
:1007D00008EB0B00A5EB0A051FFA80F800987F1CB8
:1007E000054406EB090086B2A742EADDE3E72DE9FE
:1007F000F84F1C464EF67D7B87180D468046BAB2F0
:100800000B46CDF800B0FFF79DFF2C44601C7E1E08
:1008100042F6651A83B205F10109B2B21FFA89F1F5
:10082000B0B2CDF800A0FFF78DFFA3B2BAB2A1B26B
:100830004046CDF800A0FFF785FF4246A3B2294607
:100840001046CDF800B0FFF77DFF0A980090641EB7
:1008500008F10100A3B2B2B21FFA89F180B2FFF72A
:1008600071FFA8E72DE9F84F8246CC184F1C0AEB20
:1008700002060A98894642F6651B04F10108751EB6
:1008800038B3012843D0022895D14FF6FF7B4B4661
:10089000B2B219465046CDF800B0FFF753FF1FFA29
:1008A00088F3AAB2B9B2A8B2CDF800B0FFF74AFFF8
:1008B000CDF800B0A3B2B2B2A1B25046FFF742FFEA
:1008C000CDF800B05246A3B249461046FFF73AFFB2
:1008D00071E74EF67D704B460090B2B21946504615
:1008E000FFF730FF1FFA88F3AAB2B9B2A8B2CDF869
:1008F00000B0FFF727FFA3B2B2B2A1B25046CDF8C5
:1009000000B0FFF71FFF4EF67D700090DAE74B4610
:10091000B2B219465046CDF800B0FFF713FF4EF6BD
:100920007D7000901FFA88F3AAB2B9B2A8B2FFF79F
:1009300009FF4EF67D700090BCE72DE9F84F9A460E
:1009400044F20828074693460E460B46CDF8008031
:10095000FFF7F8FE751C48F210497C1CABB2A9B237
:10096000A0B25A46CDF80090FFF7ECFE3A46534647
:1009700031461046CDF80080FFF7E4FEA2B2A9B2DE
:10098000A0B25346CDF80090FFF7DCFE4FF6FF749F
:1009900053465A46194638460094FFF7D3FE5A4646
:1009A0005346314610460094FFF7CCFE03E72DE98D
:1009B000F8431C464FF6FF78074615460E460B4691
:1009C000CDF80080FFF7BEFE3A462346314610467A
:1009D000CDF80080FFF7B6FE601E83B281B248F208
:1009E0001048781C80B22A46CDF80080FFF7AAFE96
:1009F00044F2082923462A4619463846CDF8009085
:100A0000FFF7A0FE681E82B2711C89B280B2234635
:100A1000CDF80080FFF796FE2A4623463146104661
:100A2000CDF80090FFF78EFEBDE8F8832DE9FF4F6B
:100A300083B089460446DDF840B00090A4E08028E9
:100A40003ED20D2804D0202808D9203880B206E0F4
:100A500009F110001FFA80F9009C2EE00020DFF859
:100A600038A300264FF0800801900198002506EB7E
:100A7000001700BF1AF8071028FA05F0014206D047
:100A800009EB060081B2601980B2059A09E0DDE940
:100A90000501884207D009EB060081B2601980B2D7
:100AA000069A00F043FB6D1CEDB2082DE2D3761CD4
:100AB000F6B2102ED9D30834A4B20BF1010B63E0C7
:100AC0004FF00008B54808EB08119BF8002010F81B
:100AD000113093424DD100EB4100019041789BF8D9
:100AE0000100814245D100254FF0800A019800267F
:100AF00000EB45072AFA06F0B978014206D009EB67
:100B0000050081B2A01980B2059A09E0DDE905016E
:100B1000884207D009EB050081B2A01980B2069A7D
:100B200000F004FB761CF6B2082EE3D30026F97819
:100B30002AFA06F0014207D009EB050081B2A0199C
:100B4000083080B2059A0AE0DDE90501884208D044
:100B500009EB050081B2A019083080B2069A00F0B6
:100B6000E5FA761CF6B2082EE1D36D1CEDB2102D1D
:100B7000BCD308F101001FFA80F8B8F1320FA1D3FD
:100B800010340BF1020BA4B29BF8000000287FF494
:100B900056AF07B0BDE8F08F2DE9F84F9A4693465F
:100BA00088460446B2E0802831D2202802D9203875
:100BB00080B200E0002000264FF0800900900098ED
:100BC000002506EB00177448C15D29FA05F00142C3
:100BD00006D008EB060081B2601980B25A4607E0E1
:100BE000D34507D008EB060081B2601980B25246A7
:100BF00000F09CFA6D1CEDB2082DE4D3761CF6B221
:100C0000102EDCD30A98401C08340A907DE00020A6
:100C10004FEA000900EB800161480A9A01EB491193
:100C200010F811301278934265D100EB410000902A
:100C300041780A98407881425DD1002500990026CC
:100C400005EB45000F188020B978F040014206D02E
:100C500008EB050081B2A01980B25A4607E0D345DF
:100C600007D008EB050081B2A01980B2524600F00F
:100C70005DFA761CF6B2082EE5D30026F9788020BE
:100C8000F040014207D008EB050081B2A0190830FE
:100C900080B25A4608E0D34508D008EB050081B27F
:100CA000A019083080B2524600F040FA761CF6B225
:100CB000082EE3D3002639798020F040014207D086
:100CC00008EB050081B2A019103080B25A4608E046
:100CD000D34508D008EB050081B2A019103080B2CE
:100CE000524600F023FA761CF6B2082EE3D36D1CB0
:100CF000EDB2182DA2D309F1010080B2814614286B
:100D000088D30A98801C18340A90A4B20A980078F4
:100D100000287FF448AF4EE52DE9FF4F81B08A46A9
:100D2000834620490E98002601EBC0104FF0800941
:100D300000900098002500EB860800BF18F80570A9
:100D40005FF0000429FA04F0384208D00AEB0600EC
:100D500081B20BEBC500204480B2039A0BE0DDE9C1
:100D60000301884209D00AEB060081B20BEBC500F3
:100D7000204480B2049A00F0D9F9641CE4B2082C33
:100D8000E0D36D1CEDB2042DD8D3761CF6B2202E24
:100D9000CFD305B0FEE6000010710008827E000887
:100DA0006A8500080177000838B50121082001F0A4
:100DB00040F94FF46060ADF8000003248DF8024064
:100DC00010258DF803506946EE4800F048FF0121D8
:100DD000042001F02EF9B020ADF800008DF802409B
:100DE0008DF803506946E84800F039FF38BD70B50A
:100DF000E54B0821103380241D1D2022060601D555
:100E00001C6000E02C602A601A604006000E491E3B
:100E100011F0FF01F2D170BD10B5DB49102414317F
:100E20000C60D84AC91414321160FFF7E0FFD648AD
:100E30001030046010BD10B5D349102414310C607B
:100E4000D04AC91410321160FFF7D1FFCE481030DC
:100E5000046010BD30B50446CB4810251430056041
:100E6000C849C01410310860200AFFF7C0FFE0B283
:100E7000FFF7BDFFC4481030056030BD10B50C460B
:100E8000FFF7CAFF2046BDE81040D4E7BD4810B5C3
:100E900014304FF480640460642002F0F3FDB9481C
:100EA00010300460BDE81040322002F0EBBD10B5F8
:100EB000FFF77AFFFFF7EAFF1120FFF7ADFF782079
:100EC00002F0E0FDB120FFF7A7FF0120FFF7B3FF1D
:100ED0002C20FFF7B0FF2D20FFF7ADFFB220FFF76A
:100EE0009BFF0120FFF7A7FF2C20FFF7A4FF2D2079
:100EF000FFF7A1FFB320FFF78FFF0120FFF79BFF54
:100F00002C20FFF798FF2D20FFF795FF0120FFF71A
:100F100092FF2C20FFF78FFF2D20FFF78CFFB420CE
:100F2000FFF77AFF0720FFF786FFC020FFF774FF67
:100F3000A220FFF780FF0220FFF77DFF8420FFF74C
:100F40007AFFC120FFF768FFC520FFF774FFC220BA
:100F5000FFF762FF0A20FFF76EFF0020FFF76BFF2D
:100F6000C320FFF759FF8A20FFF765FF2A20FFF70C
:100F700062FFC420FFF750FF8A20FFF75CFFEE20DE
:100F8000FFF759FFC520FFF747FF0E20FFF753FF7C
:100F90003620FFF741FFC820FFF74DFFE020FFF7A5
:100FA0003BFF0F20FFF747FF1A20FFF744FF0F20FA
:100FB000FFF741FF1820FFF73EFF2F20FFF73BFF11
:100FC0002820FFF738FF2020FFF735FF2220FFF70A
:100FD00032FF1F20FFF72FFF1B20FFF72CFF2320DE
:100FE000FFF729FF3720FFF726FF0020FFF723FF39
:100FF0000720FFF720FF0220FFF71DFF1020FFF75B
:101000001AFFE120FFF708FF0F20FFF714FF1B2056
:10101000FFF711FF0F20FFF70EFF1720FFF70BFF61
:101020003320FFF708FF2C20FFF705FF2920FFF7EB
:1010300002FF2E20FFF7FFFE3020FFF7FCFE3020DE
:10104000FFF7F9FE3920FFF7F6FE3F20FFF7F3FE2A
:101050000020FFF7F0FE0720FFF7EDFE0320FFF76B
:10106000EAFE1020FFF7E7FE2A20FFF7D5FE00205A
:10107000FFF7E1FE0020FFF7DEFE0020FFF7DBFEBA
:101080007F20FFF7D8FE2B20FFF7C6FE0020FFF7DA
:10109000D2FE0020FFF7CFFE0020FFF7CCFE9F20FE
:1010A000FFF7C9FEF020FFF7B7FE0120FFF7C3FEF0
:1010B000F620FFF7B1FE0020FFF7BDFE3A20FFF754
:1010C000ABFE0520FFF7B7FEBDE810402920A3E6E0
:1010D000F0B507461C4615460E462A20FFF79CFE33
:1010E0000020FFF7A8FEBF1CF8B2FFF7A4FE002007
:1010F000FFF7A1FEAD1CE8B2FFF79DFE2B20FFF726
:101100008BFE0020FFF797FEF61CF0B2FFF793FE70
:101110000020FFF790FEE41CE0B2FFF78CFEBDE874
:10112000F0402C2078E60B460246D1E710B5144675
:101130004A1C93B2421C92B2FFF7CAFF2046BDE898
:10114000104087E600B5FFF7EEFFE0B2FFF773FE51
:10115000204600BD70B506467F2300211A4608468A
:10116000FFF7B6FF2C20FFF757FE0024002530467E
:10117000FFF770FE6D1C802DF9D3641C802CF5D315
:1011800070BD0000000C01400008014028490843E0
:1011900028490860704770B50F23C4780178012290
:1011A000F4B1244C2468457804F4E064C4F5E064A8
:1011B000240AC4F10406E3408478B5401C402C4363
:1011C00001F1E021230181F80034007800F01F01D3
:1011D0008A404009800000F1E020C0F8002170BD85
:1011E00001F01F0082404809800000F1E020C0F8B3
:1011F000802170BD104A114001430E48001F01605C
:1012000070470C4A121D0029116801D0014300E00B
:101210008143116070474FF0E0210428086903D032
:1012200020F004000861704740F00400FAE7000075
:101230000000FA050CED00E080FFFF1FC54910B566
:10124000884202D1012144150AE0C349884202D1F3
:101250000121041504E0C14988420AD10121CC03CF
:10126000204600F0F8FE2046BDE81040002100F0C6
:10127000F2BE10BD10B54268B94B0C791A400B682C
:1012800042EA0422134343608368B64A1340D1E91B
:10129000024222434C7943EA44031A438260C26A01
:1012A000097C22F47002491EC9B242EA0151C162AE
:1012B00010BD00210160017141718160C160012197
:1012C000017470470029816802D041F0010101E0FA
:1012D00021F00101816070470029816802D041F44A
:1012E000807101E021F4807181607047002A4268BA
:1012F000C9B201D00A4300E08A4342607047816866
:1013000041F00801816070470146002089680907A3
:1013100000D501207047816841F004018160704769
:10132000014600208968490700D50120704700293F
:10133000816802D041F4A00101E021F4A0018160A4
:101340007047014600208968490200D50120704796
:101350004268491E22F4604242EA413141607047CE
:101360000029416802D041F4006101E021F40061EC
:101370004160704770B5072409290AD9C568A1F1F1
:101380000A0606EB4606B440A543B3401D43C560BC
:1013900007E0056901EB4106B440A543B3401D4396
:1013A00005611F23072A09D2446B521E02EB8202F9
:1013B00093409C4391400C43446370BD0D2A09D275
:1013C000046BD21F02EB820293409C4391400C437A
:1013D000046370BDC46A0D3A02EB820293409C43E1
:1013E00091400C43C46270BD0029816802D041F471
:1013F000801101E021F4801181607047C06C80B2DF
:10140000704754484C30006870470029416802D04A
:1014100041F4806101E021F480614160704700295E
:10142000416802D041F4805101E021F480514160D3
:101430007047826822F4E0420A43826070470029C4
:10144000816802D041F4004101E021F40041816053
:1014500070470029816802D041F4021101E021F4B3
:10146000021181607047014600208968890200D519
:101470000120704770B5072409290AD9C568A1F170
:101480000A0606EB4606B440A543B3401D43C560BB
:1014900007E0056901EB4106B440A543B3401D4395
:1014A0000561836BC3F30154121B921C02EB82048F
:1014B0001F22A2409343A1400B43836370BD826B04
:1014C000491E22F4401242EA01518163704708B577
:1014D00008440090026008BD08B508442830009018
:1014E000006880B208BD42681F4B1A400A43426040
:1014F0007047416282627047426822F01F020A43CD
:1015000042607047134908310028086802D040F44F
:10151000000001E020F4000008607047024600204F
:1015200012680A4200D001207047C9430160704729
:1015300010B50246002054680B0AC9B20C4011686D
:10154000194202D0002C00D0012010BD6FEA1121F9
:10155000016070470024014000280140003C014028
:10156000FFFEF0FFFDF7F1FFFFFD3FFF01684FF6C3
:10157000FE72114001600021016041608160C16024
:101580006A496A4A0839904203D1486840F00F001E
:1015900006E0664A1432904204D1486840F0F000F8
:1015A00048607047614A2832904203D1486840F44D
:1015B0007060F5E75D4A3C32904203D1486840F4E0
:1015C0007040EDE7594A5032904203D1486840F4E8
:1015D0007020E5E7554A6432904203D1486840F4F0
:1015E0007000DDE7514A7832904203D1486840F0FC
:1015F0007060D5E74E4A111F904203D1086840F051
:101600000F0006E04A4A1432904204D1086840F0C4
:10161000F00008607047464A2832904203D10868BB
:1016200040F47060F5E7424A3C32904203D10868CA
:1016300040F47040EDE73E4A50329042EAD10868EB
:1016400040F47020E5E730B5036847F6F072934345
:101650000C6A8A682243D1E904452C4322438C69F1
:101660002243CC6922434C6A22438C6A22431A43A8
:101670000260CA6842600A6882604968C16030BD21
:101680000021016041608160C1600161416181614F
:10169000C16101624162816270470029016802D024
:1016A00041F0010102E04FF6FE7211400160704707
:1016B000002A026801D00A4300E08A4302607047B2
:1016C00041607047406880B2704701460020CA0000
:1016D00002D5174A083A01E0144A083A12680A4249
:1016E00000D001207047C10003D51149091F0860CF
:1016F00070470E4908394860704701460020CA000B
:1017000002D50B4A083A01E0084A083A12680A4230
:1017100000D001207047C10003D50549091F0860AA
:1017200070470249083948607047000008000240CD
:1017300008040240FC4A116801F0380101431160BD
:101740007047F9490A6822F008020A600A680243F1
:101750000A607047F4490A6822F010020A600A68B9
:1017600002430A607047F048F0494160F049416027
:101770007047ED48ED494160ED4941607047EA48E6
:10178000016941F0800101617047E748016941F05A
:10179000800101617047E4490420CA68D20701D082
:1017A00001207047CA68520701D502207047C968F6
:1017B000C906FBD50320704700B50346FFF7EBFFD2
:1017C00003E000BFFFF7E7FF5B1E012803D0002BFB
:1017D00000D1052000BD002BF4D1FAE770B5054615
:1017E0004FF430263046FFF7E7FF042811D1CE4CE6
:1017F000206940F0020020616561206940F04000EE
:1018000020613046FFF7D8FF216941F6FD72114093
:10181000216170BD30B54FF430252846FFF7CCFF6D
:10182000042810D1C04C206940F0040020612069D8
:1018300040F0400020612846FFF7BEFF216941F6D5
:10184000FB721140216130BD00B50346FFF7A3FFD5
:1018500003E000BFFFF79FFF5B1E012803D0002BB2
:1018600000D1052000BD002BF4D1FAE730B54FF4CC
:1018700030252846FFF7E8FF042810D1AA4C20693C
:1018800040F004002061206940F0400020612846BB
:10189000FFF7DAFF216941F6FB721140216130BD8B
:1018A000A1490020C969890700D50120704770B59A
:1018B000A525FFF7F5FF00B100254FF4302630468F
:1018C000FFF77AFF042827D1974C9848A0609848E2
:1018D000A060206940F020002061206940F04000B5
:1018E00020613046FFF768FF41F6EF7604280ED1FD
:1018F000206941F6DF7108402061206940F0100046
:1019000020618C4805804FF40050FFF755FF0528F3
:1019100002D021693140216170BDF8B50646002032
:101920004FF4005C00900D466046FFF745FF042829
:1019300016D17D4C206940F0010020613580604661
:10194000FFF73AFF41F6FE77042806D1B61C280CB3
:10195000009630806046FFF72FFF216939402161F2
:10196000F8BDF0B506464FF400570D463846FFF770
:1019700023FF04280CD16C4C206940F00100206149
:1019800035803846FFF718FF2169BA1E11402161E2
:10199000F0BDF0B506464FF400570D463846FFF748
:1019A0000BFF042813D1604C6048A0606048A06021
:1019B000206940F01000206135803846FFF7FCFEBA
:1019C000052804D0216941F6EF7211402161F0BD74
:1019D0002DE9F041C04300F0FF0CC0F30727C0F32E
:1019E0000746050E4FF400584046FFF7E5FE042871
:1019F00037D14D4C4D49A1604D49A160216941F05D
:101A000010012161BCF1FF0F08D04A480830A0F84E
:101A100000C04046FFF7D0FE04281BD1FF2F07D09F
:101A200044480A3007804046FFF7C6FE042811D11B
:101A3000FF2E07D03F480C3006804046FFF7BCFE23
:101A4000042807D1FF2D07D03A480E3005804046C4
:101A5000FFF7B2FE052804D0216941F6EF7211406C
:101A60002161BDE8F08170B505464FF4302630465F
:101A7000FFF7A2FE042818D12B4C2C48A0602C485C
:101A8000A060206940F020002061206940F0400003
:101A900020613046FFF790FE41F6DF71042805D043
:101AA000052802D022690A40226170BD20690840E1
:101AB0002061206940F0100020611E480DB1002116
:101AC00000E0A52101803046FFF776FE0528ECD026
:101AD000216941F6EF721140216170BDF0B5124CE1
:101AE0000746124816460D46A0601148A0604FF404
:101AF000005C6046FFF760FE042814D1206940F0C6
:101B00001000206135430B493D43891C45F0F80026
:101B100008806046FFF750FE052804D0216941F691
:101B2000EF7211402161F0BD0020024023016745A2
:101B3000AB89EFCD00F8FF1F1C48C06980087047D3
:101B40001A48006A7047194900200968890600D5BB
:101B500001207047154A0029116901D0014300E0B6
:101B600081431161704701460020104A012903D0CA
:101B7000D2680A4203D17047D169C907FBD001205E
:101B800070470A49C860704708490420CA68D207EC
:101B900001D001207047CA68520701D50220704762
:101BA000C968C906FBD50320704700000020024029
:101BB000914910B5884206D10121042000F04BFA6A
:101BC000002104203BE08D49884206D101210820F4
:101BD00000F041FA0021082031E08949884206D10D
:101BE0000121102000F037FA0021102027E085495C
:101BF000884206D10121202000F02DFA002120206A
:101C00001DE08149884206D10121402000F023FADD
:101C10000021402013E07D49884206D10121802027
:101C200000F019FA0021802009E0794988420AD1A0
:101C300084150121204600F00EFA00212046BDE85F
:101C4000104000F008BA10BD10B50121084600F0A0
:101C500002FA0021BDE81040012000F0FCB9F0B507
:101C6000CA78002502F00F03D20601D58A78134303
:101C70000A784FF00F0E12F0FF0F4FF001021DD047
:101C8000D0F800400F8802FA05F63740B74211D16C
:101C90004FEA850C0EFA0CF724EA070703FA0CF456
:101CA0003C43CF78282F02D0482F02D002E0466173
:101CB00000E006616D1C082DE4D304600C88FF2C45
:101CC0001ED944685FF0000606F1080702FA07F51E
:101CD0000F882F40AF420FD14FEA860C0EFA0CF757
:101CE000BC4303FA0CF73C43CF78282F00D1456161
:101CF000CF78482F00D10561761C082EE4D34460CC
:101D0000F0BD4FF6FF710180022181700421C17086
:101D100070470246002092680A4200D001207047B6
:101D2000806880B2704702460020D2680A4200D024
:101D300001207047C06880B27047016170474161FF
:101D400070470AB10161704741617047C1607047D7
:101D500041F480328261816182618169806970476A
:101D60002C4B10B51A684FF68074224042EA0010DE
:101D70000843186010BD2849C8617047F0B5254C6C
:101D8000002801DAE36900E06368420D120185B2C0
:101D9000C0F301579540C0F30346032F05D0C2029C
:101DA0000AD50322B240934307E023F070626368D0
:101DB00023F07063636002E0AB4343F0706201B1F3
:101DC0002A43002801DAE261F0BD6260F0BD10B57F
:101DD0008A0721F003040F49130F21440F228C6856
:101DE0009A4094438C608A68984002438A6010BD90
:101DF0000949C1F8DC00704700080140000C0140AF
:101E0000001001400014014000180140001C014076
:101E1000002001400000014000002042A448016869
:101E200041F0010101604168A24A1140416001682E
:101E3000A14A11400160016821F4802101604168DC
:101E400021F4FE0141604FF41F0181607047984901
:101E50000A6822F480320A600A6822F480220A604A
:101E6000B0F5803F07D0B0F5802F03D1086840F46B
:101E7000A02008607047086840F48030F9E7024607
:101E8000002053098A49012B0AD0022B0AD0496A43
:101E900002F01F02012393400B4200D00120704743
:101EA0000968F5E7096AF3E718B500204FF4A06464
:101EB00000903120FFF7E3FF0099491C0091A142F7
:101EC00001D00028F5D03120FFF7D9FF002800D03D
:101ED000012018BD76490A6822F0F80242EAC000E3
:101EE00008607047754908607047714A5368084335
:101EF00023F47C131843506070477049086670479C
:101F00006B4A516821F003010143516070476848F2
:101F1000406800F00C007047654A516821F0F001FC
:101F2000014351607047624A516821F4E061014306
:101F3000516070475E494A6822F4605242EAC0002C
:101F4000486070475A4A0029517A01D0014300E0A5
:101F50008143517270475949C1F8D8007047544ABB
:101F6000516821F4404101435160704750490022BB
:101F700081F8202081F82020012802D0042802D1F5
:101F8000052081F8200070474D4908607047484996
:101F90000A6A02430A627047494944390860704737
:101FA00030B543494A6812F00C03464A03D0042B6B
:101FB00001D0082B21D002604A680F23424C03EA6B
:101FC0001212A35C0268DA4042604B68072505EAFA
:101FD0001323E35C22FA03F383604B6805EAD323FF
:101FE000E35CDA40C2604968032303EA9131231FAE
:101FF000595CB2FBF1F1016130BD4A684B6802F4F3
:1020000070124FF0020413F4803F04EB924202D0AE
:102010004B689B0301D52D4B00E02A4B5A43CAE77E
:10202000234A0029516901D0014300E081435161F5
:1020300070471F4A0029916901D0014300E08143A4
:10204000916170471A4A0029D16901D0014300E02B
:102050008143D1617047164A0029D16801D00143FC
:1020600000E08143D1607047114A0029116901D015
:10207000014300E081431161704711494039086014
:1020800070470E49C86470470949C87170470848CD
:10209000416A41F0807141627047054A0146002063
:1020A00092680A4200D00120704701498872704747
:1020B000001002400000FFF8FFFFF6FE0000424261
:1020C0008004424200127A003C00002000093D00DA
:1020D000F94910B5884202D10121C41486E0B0F15B
:1020E000804F09D0F54988420DD101210220FFF728
:1020F000BBFF0021022064E001210846FFF7B4FF86
:10210000002101205DE0EE49884206D10121042032
:10211000FFF7AAFF0021042053E0EA49884206D1D4
:1021200001210820FFF7A0FF0021082049E0E6492F
:10213000884206D101211020FFF796FF00211020D0
:102140003FE0E249884206D101212020FFF78CFFC1
:102150000021202035E0DE49884202D101214414CB
:1021600044E0DC49884202D10121CC043EE0DA4956
:10217000884202D101210C0538E0D849884202D1B9
:1021800001214C0532E0D649884206D10121402088
:10219000FFF76AFF0021402013E0D249884206D1B0
:1021A00001218020FFF760FF0021802009E0CE4957
:1021B00088420AD1841501212046FFF755FF0021EE
:1021C0002046BDE81040FFF74FBFC849884202D102
:1021D00001210C040AE0C649884202D101214C04C5
:1021E00004E0C44988420AD101218C042046FFF74B
:1021F00032FF2046BDE810400021FFF72CBF10BD84
:1022000030B50288AC4BB24C98420DD0A0420BD0F6
:10221000B0F1804F08D0A94DA84205D0A84DA842E2
:1022200002D0A84DA84203D122F070054A882A4363
:10223000A54DA84206D0A54DA84203D022F4407572
:10224000CA882A4302808A8882850A880285984241
:102250000AD0A04208D0A54A904205D0A44A904294
:1022600002D0A44A904201D1097A018601218182DB
:1022700030BD30B5028C22F001020284028C8388CA
:10228000048B22F0020224F073050C882C430D8984
:1022900015434A882A43884DA8420BD08C4DA8424A
:1022A00008D0924DA84205D0914DA84202D0914D40
:1022B000A8420DD122F008054A8923F440732A432D
:1022C00022F004058A882A438D891D43CB892B433C
:1022D00083800483C9888186028430BD70B5028CF6
:1022E00022F010020284028C8488038B0D8823F470
:1022F000E6464FF6FF7303EA052535430E8922F0C3
:10230000200203EA061616434A8803EA0212324301
:10231000694EB04202D06E4EB04215D122F0800616
:102320004A8924F4406403EA0212324322F0400650
:102330008A8803EA021232438E8903EA860626431C
:10234000CC8903EA8404344384800583C9880187E7
:10235000028470BD70B5028C22F480720284028CFB
:102360008488838B0D8823F073031D4322F400734C
:102370000E894FF6FF7202EA06261E434B8802EAD8
:10238000032333434C4EB04202D0514EB04215D1DC
:1023900023F400664B8924F4405402EA03233343B8
:1023A00023F480668B8802EA032333438E8902EA92
:1023B00006162643CC8902EA0414344384808583BC
:1023C000C9888187038470BD70B5028C22F4805265
:1023D0000284048C8288838B0D8823F4E6464FF6B2
:1023E000FF7303EA0525354324F400560C8903EAFC
:1023F000043434434E8803EA063626432E4CA0426A
:1024000002D0334CA04205D122F480448A8903EAE9
:102410008212224382808583C988A0F840100684F6
:1024200070BD828B22F440628283828B4FF6FF73F1
:1024300003EA01210A4382837047828B22F00C0257
:102440008283828B0A4382837047028B22F440622C
:102450000283028B4FF6FF7303EA01210A430283D2
:102460007047F0B5048C24F010040484078B048CAE
:102470004FF6FF7527F4734705EA03333B4305EA3C
:1024800002221A430C4B05EA011698420ED0104B5B
:1024900098420BD0B0F1804F08D0084B984205D03D
:1024A000074B984202D0074B984225D124F02001D7
:1024B000314341F0100124E0002C014000040040B1
:1024C00000080040000C00400010004000140040D4
:1024D00000340140004C01400050014000540140D4
:1024E00000180040001C0040002000400040014057
:1024F000004401400048014024F0A0030B4343F096
:10250000100102830184F0BD028B22F00C020283D1
:10251000028B0A430283704770B5048C24F00104D7
:102520000484058B048C4FF6FF7606EA03131343ED
:1025300025F0F305F94A2B4390420ED0F84A904219
:102540000BD0B0F1804F08D0F64A904205D0F64A41
:10255000904202D0F54A904202D124F0020201E0FA
:1025600024F00A020A4342F001010383018470BD92
:102570002DE9F05F0D4604460888E84FDFF8A0C358
:10258000DFF8A0834988AA882B894FF0804960B37F
:10259000042832D04FF6FF7E082836D0208C9B4688
:1025A00020F480502084A38B268C704600EA0222FF
:1025B00023F473431A4300EA0B3010430EEA013E42
:1025C000BC420BD0644509D04C4507D0444505D0EA
:1025D000D54A944202D0D54B9C4245D126F40051B5
:1025E00041EA0E0141F4805143E02046FFF794FF99
:1025F000E9882046BDE8F05F86E72046FFF731FF17
:10260000E9882046BDE8F05F1FE7208C20F4807049
:102610002084B4F81CA0208C0EEA031313432AF084
:10262000F30A0EEA012B43EA0A03BC420BD06445CD
:1026300009D04C4507D0444505D0BB4A944202D04E
:10264000BA4A944204D120F4007040EA0B0002E040
:1026500020F42060084340F48070A3832084E9883C
:102660002046BDE8F05FE8E626F402420A4342F461
:102670008051A08320462184E988BDE8F05FD0E640
:102680002DE9F0410C46002649880746012501B98D
:102690000226A288012A00D1022520882389002849
:1026A000384610D0FFF7DDFEE1883846FFF7CDFE53
:1026B00023892A4631463846FFF72EFFE1883846FF
:1026C000BDE8F04120E7FFF727FFE1883846FFF734
:1026D0001BFF23892A4631463846FFF7C2FEE188B0
:1026E0003846BDE8F041B0E610B50A884B88CC8882
:1026F0001A438B8823431A430B891A434B898989D0
:102700001A430A43A0F8442010BD4FF6FF718180A0
:1027100000210180C1804180017270470021018049
:1027200041808180C180018141818181C181704767
:1027300000210180418001228280C1800181704797
:102740000021018041808180C1800181418181819E
:1027500070470029018802D041F0010101E021F019
:10276000010101807047002930F8441F02D041F474
:10277000004101E0C1F30E0101807047002A828907
:1027800001D00A4300E08A4382817047818270470A
:102790001143A0F848107047002A828901D00A43EB
:1027A00000E08A4382817047018921F0070101819D
:1027B0007047028922F070020A430281704700B517
:1027C0000346FFF7F6FF188940F00700188100BDA7
:1027D00070B516460D46602904464FF00102314699
:1027E0000AD0FFF799FE29462046FFF7E2FF20892D
:1027F00040F00700208170BDFFF733FEF3E730B5EE
:1028000004894FF6FF7505EA03231343E4B20B4333
:102810002343038130BD10B50446FFF7F0FF208944
:1028200040F07700208110BD10B50446FFF7E7FFA8
:10283000208940F48040208110BD0185828270474C
:10284000028822F070020A430280704770B5058941
:10285000048B068C25F007050D434FF6FC410C4018
:1028600040F201110C434FF6FF7101EA031126F00B
:1028700022061143314305810483018470BD028B1C
:1028800022F070020A4302837047028B4FF6FF73F7
:1028900022F4E04203EA0121114301837047828B55
:1028A00022F070020A4382837047828B4FF6FF73D7
:1028B00022F4E04203EA0121114381837047002999
:1028C000018802D041F0800101E021F08001018007
:1028D00070470029818802D041F0040101E021F015
:1028E0000401818070470029818802D041F00801ED
:1028F00001E021F00801818070470029818802D021
:1029000041F0010101E021F0010181807047028B5B
:1029100022F008020A43028370470000002C0140A5
:10292000003401400004004000080040000C00405A
:10293000028B4FF6FF7322F4006203EA0121114378
:102940000183E9E7828B22F008020A438283E3E7EE
:10295000828B4FF6FF7322F4006203EA01211143D8
:102960008183D9E7028B22F004020A430283D3E772
:10297000028B4FF6FF7322F4806203EA01211143B8
:102980000183C9E7828B22F004020A438283C3E7F2
:10299000828B4FF6FF7322F4806203EA0121114318
:1029A0008183B9E7028B22F080020A430283B3E7F6
:1029B000028B4FF6FF73C2F30E0203EA01211143AB
:1029C0000183A9E7828B22F080020A438283A3E776
:1029D000828B4FF6FF73C2F30E0203EA012111430B
:1029E000818399E7028C22F002020A43028493E772
:1029F000028C22F008020A4302848DE7028C4FF613
:102A0000FF7322F0200203EA01111143018483E7DE
:102A1000028C4FF6FF7322F0800203EA011111438A
:102A2000018479E7028C4FF6FF7322F4007203EA07
:102A30000121114301846FE7028C4FF6FF7322F4EA
:102A4000006203EA01211143018465E7028C4FF61D
:102A5000FF7322F4005203EA0131114301845BE762
:102A600010B50123048C8B409C430484038C8A4062
:102A70001343038410BD10B50423048C8B409C4386
:102A80000484038C8A401343038410BD30B50124B1
:102A9000058C00F118038C40A543058489B10829F1
:102AA0000FD0091FC1F34E001844016821F4E04122
:102AB000016001684FF6FF7303EA022211430160CF
:102AC00030BD03EB5100016821F070010160016825
:102AD000F4E70029018802D041F0020101E021F071
:102AE0000201018018E70029018802D041F00401A9
:102AF00001E021F0040101800EE70029818802D065
:102B000041F0800101E021F08001818004E702882A
:102B100022F00802028002880A430280FCE68288D2
:102B200022F07002828082880A438280F4E6028961
:102B300022F00702028102890A430281ECE602893F
:102B400022F08002028102890A430281E4E6818444
:102B5000E2E68185E0E68186DEE60187DCE68187C4
:102B6000DAE6A0F84010D7E6028822F4407202802C
:102B700002880A430280CFE6808ECDE6008FCBE646
:102B8000808FC9E6B0F84000C6E6808CC4E6008DB0
:102B9000C2E602460020128A0A4200D00120BBE6AB
:102BA000C9430182B8E602460020138A92890B428B
:102BB00002EA010202D0002A00D00120ACE6C9439B
:102BC0000182A9E6C44910B588420AD101218C03CB
:102BD0002046FFF740FA2046BDE810400021FFF7ED
:102BE0003ABABE49884202D101214C0410E0BC49E6
:102BF000884202D101218C040AE0BA49884202D1FC
:102C00000121CC0404E0B84988420AD101210C0515
:102C10002046FFF729FA2046BDE810400021FFF7C3
:102C200023BA10BD30B50446008A85B00D464CF677
:102C3000FF710840E98801432182A1894EF6F31013
:102C40000140A8882A8910436A890A431043A08159
:102C5000A08A4FF6FF410840A9890143A182684636
:102C6000FFF79EF99C48844201D1039800E0029846
:102C7000A189090400EBC00101EB0010296801D50E
:102C8000490000E08900B0FBF1F06422B0FBF2F1F2
:102C900009010B096FF018056B4300EB8300A38952
:102CA0001D044FF0320306D503EBC000B0FBF2F079
:102CB00000F0070005E003EB0010B0FBF2F000F0BD
:102CC0000F000843208105B030BD4FF4165101605C
:102CD00000218180C18001810C2242818181704765
:102CE00010B5038A4FF2FF0213400A884C88224332
:102CF0008C88C9880C4322431A43028210BD0021EC
:102D0000018041808180C18070470029818902D083
:102D100041F4005101E021F400518181704710B568
:102D2000C1F3421301F01F040121A140012B07D080
:102D3000022B07D01430002A026805D00A4304E0B1
:102D40000C30F8E71030F6E78A43026010BD002A25
:102D5000828A01D00A4300E08A4382827047028A55
:102D600022F00F020282028A0A430282704782899D
:102D700022F40062828182890A438281704700299D
:102D8000818902D041F0020101E021F0020181813C
:102D90007047028A22F020020282028A0A430282DB
:102DA00070470029018A02D041F4804101E021F4FA
:102DB000804101827047C1F308018180704780889B
:102DC000C0F308007047818941F00101818170479B
:102DD000028BD2B20283028B42EA01210183704747
:102DE000028B02F47F420283028B0A430283704704
:102DF0000029818A02D041F0200101E021F0200168
:102E0000818270470029818A02D041F0100101E0DF
:102E100021F01001818270470029818A02D041F09F
:102E2000080101E021F008018182704700298189B1
:102E300002D041F4004101E0C1F30E0181817047ED
:102E40000029818A02D041F4006101E021F400618F
:102E500081827047828A22F004028282828A0A4337
:102E6000828270470029818A02D041F0020101E08C
:102E700021F00201818270470246002012880A4236
:102E800000D001207047C9430180704730B501F080
:102E90001F0201240025C1F3421304FA02F2012BA0
:102EA0000FD0022B0FD0838A4FEA112100881342E2
:102EB00004FA01F400EA040001D000B1012528461B
:102EC00030BD8389F0E7038AEEE70A0A01219140C9
:102ED000C9430180704700000038014000440040B1
:102EE00000480040004C0040005000400948804726
:102EF00009480047FEE7FEE7FEE7FEE7FEE7FEE7DC
:102F0000FEE7FEE7FEE7FEE704480549054A064BF3
:102F10007047000025050008ED000008D8090020D2
:102F2000D80F0020D80B0020D80B002010B50100CE
:102F3000FE4805D000210446FFF709FE0121204686
:102F4000BDE81040FFF705BC70B5F94C40F22551C3
:102F50002046FFF79BFF002816D02046FFF72FFFE3
:102F6000F44CC5B2A088B0F5806F0ED20021EF48B6
:102F7000FFF7EDFDA08810B90120FFF7D7FFEE495C
:102F8000A0880D54401CA08070BD40F40040FAE7BA
:102F90007FB50C46054601210420FFF753F8ADF834
:102FA00000400020ADF80450E04CADF80600ADF84C
:102FB000020069462046FFF723F901221146204608
:102FC000FFF7DCFB1E208DF80C0001208DF80D00B2
:102FD00002218DF80E108DF80F0003A8FEF7DBF824
:102FE0007FBD70B50C46064601218CB015460846DB
:102FF000FFF716F83046FEF7B9FA00211020CDE9A8
:1030000002018020CDE904104001CDE908100691AD
:103010000A91079169463046CDE90045FEF713FB5A
:103020000CB070BD2DE9F041804686B0012104202E
:10303000FEF7FFFF01214804FFF704F8BC4E3046BD
:10304000FFF7C0FD0424ADF8104003258DF81250A1
:103050001820BA4F8DF8130004A93846FEF7FFFD7B
:103060000820ADF810008DF8134004A93846FEF78B
:10307000F6FD0024ADF808400C20ADF80440ADF892
:103080000A00CDF80080ADF80640ADF80C40694666
:103090003046FFF7C7FD012280213046FFF757FE7B
:1030A000A74A311DA748FFF79CFF01213046FFF7D3
:1030B0002CFE012240F225513046FFF730FE26203B
:1030C0008DF8140002208DF815008DF8165001209F
:1030D0008DF8170005A8FEF75EF841F61F4140F293
:1030E000E730FFF755FF934884800020FFF71EFF6D
:1030F00006B0BDE8F08170B50C4605460021FEF72C
:10310000CCFA21462846FEF7DBFA2846BDE8704097
:103110000121FEF7C2BA0FB4894810B503AA02997B
:1031200000F054FE874C2046FEF7CCFA0028FAD176
:10313000834801F0D3F8C1B22046FFF7DCFF10BC92
:103140005DF814FB10B5794C01212046FFF72BFDEB
:1031500000280CD07749888840F4004088800121FD
:103160002046FFF72CFDBDE810400020DEE610BD34
:10317000704A014600209288130406D56E4BC2F3B4
:103180000E029854184601F097B870472DE9F047A1
:10319000684D88460026014614463746AE806AA030
:1031A000FFF7B9FFB8F1000F1CD0DCB14FF4806914
:1031B000641E2404240C14D00A2000F063FCA888A8
:1031C0000004F5D562A000F013FE4046FFF7D0FFE3
:1031D00008B134B106E0AF804946574801F0CFF856
:1031E000E6E701263046BDE8F0872DE9F0410E46BE
:1031F000074600244E4D0BE040212846FFF73CFED9
:103200000028F9D0395D2846FFF7D5FD641CA4B22B
:10321000B442F1D340212846FFF72EFE0028F9D012
:1032200067E770B54FF4487402E0204600F02AFCCE
:1032300014224AA14AA0FFF7A9FF0028F5D149A00E
:1032400000F0D6FD642000E0204600F01BFC1422B4
:1032500042A148A0FFF79AFF0028F5D147A000F04F
:10326000C7FD02E0204600F00DFC64223BA147A010
:10327000FFF78CFF0028F5D102E0204600F002FCA9
:10328000642245A146A0FFF781FF0028F5D147A0A1
:1032900000F0AEFD4FF47A74264D02E0204600F0B7
:1032A000F1FB64222DA1A868FFF770FF0028F5D17B
:1032B00041A000F09DFD204600F0E4FB642227A120
:1032C000E868FFF763FF0028F5D13FA000F090FD0C
:1032D000204600F0D7FB642220A12869FFF756FFA3
:1032E0000028F5D1204600F0CDFBBDE870403AA0A3
:1032F00000F07EBD2DE9F04FADF2045D0D4C4FF4B2
:103300007A7502E0284600F0BDFB642236A16069B0
:10331000FFF73CFF0028F5D1AB46284600F0B2FB92
:1033200032A000F065FDFDF7C2FD67E00008004037
:10333000004400404C0000207804002000080140B8
:10334000780000208000024025730D0A0000000074
:103350007761697420636865636B0A004F4B0000F6
:1033600041544900415449CDA8D1B6B3C9B9A60DBD
:103370000A00000041542B43494D490043494D493F
:10338000CDA8D1B6B3C9B9A60D0A000041542B434C
:1033900047534E3D310000002B4347415454000039
:1033A00041542B43474154543F000000C4A3BFE99C
:1033B000BCA4BBEE0D0A0000636D6431CDA8D1B68C
:1033C000B3C9B9A60D0A0000636D6432CDA8D1B6A9
:1033D000B3C9B9A60D0A0000636D6433CDA8D1B698
:1033E000B3C9B9A60D0A00003E000000636D643445
:1033F000CDA8D1B6B3C9B9A60D0A000072494FF4E1
:10340000007008604FF6FF7A5046FDF7A3FE6FA0EC
:1034100000904FF6E0731F2200210F20FDF706FBFE
:103420006D49481E00F011FA6C4D287801287DD1B5
:103430006B4E6CA167A8327800F0E6FCDFF8A8813B
:1034400068A199A898F8002000F0DEFCDFF89C91B4
:1034500064A1CBA899F8002000F0D6FC627861A1A5
:1034600003A800F0D1FCA2785EA135A800F0CCFC46
:1034700000272F705EA0009053461F22142138466B
:10348000FDF7D4FA67A8009053461F221421462066
:10349000FDF7CCFA59A0009053461F2214215E205C
:1034A000FDF7C4FA56A0009053461F2228210020A1
:1034B000FDF7BCFA99A8009053461F222821462008
:1034C000FDF7B4FA4DA0009053461F2228215E203C
:1034D000FDF7ACFA4CA0009053461F223C2100207F
:1034E000FDF7A4FACBA8009053461F223C214620AA
:1034F000FDF79CFA41A0009053461F223C215E201C
:10350000FDF794FA42A0009053461F22502100205C
:10351000FDF78CFA03A8009053461F2250215E202D
:10352000FDF784FA3EA053461F2200E047E00090DA
:1035300050217220FDF77AFA3AA0009053461F22DC
:1035400064210020FDF772FA35A8009053461F222F
:1035500064214620FDF76AFA35A0009053461F22E9
:1035600064215A20FDF762FA482232490DF2BC402C
:1035700000F0D3FE4FF4966000F084FA307899F8AA
:10358000002098F800108DE807006378A2780DF20B
:10359000BC41FDA800F038FCFDA800F09FFE81B200
:1035A000FDA8FFF722FE642000F06CFA0A48012112
:1035B000801EFFF71AFE584600F064FA2F700DF2D5
:1035C000045DBDE8F08F0000100C0140414952201D
:1035D0005155414C495459004E0000200000002034
:1035E00001000020256400000200002003000020EC
:1035F00053756C666964653A0000000070706D0078
:10360000434F323A00000000536D6F673A000000EC
:1036100054656D70657261747572653A00000000E2
:103620004300000048756D69646974793A000000D0
:10363000250000006C8D000870477FB50C460546DC
:103640000121C802FEF7F5FC641E6D1EADF80040B6
:10365000ADF804500024404DADF80240ADF80640EE
:103660008DF8084069462846FEF7CAFD19208DF8F6
:103670000C0001208DF80F008DF80D408DF80E40E4
:1036800003A8FDF788FD01212846FFF789FA0122EA
:1036900011462846FFF772F801212846FFF759F82E
:1036A0007FBD10B52C4C01212046FFF77CFA002885
:1036B00005D02046BDE810400121FFF780BA10BDBB
:1036C0007FB50C46054601210846FEF7BBFCADF868
:1036D0000450ADF8004000244FF08045ADF806409E
:1036E000ADF8024069462846FEF78AFD01221146E0
:1036F0002846FFF743F81C208DF80C008DF80D408C
:1037000003208DF80E0001208DF80F0003A8FDF7AF
:1037100042FD01212846FFF71CF87FBD10B50121AD
:103720008C072046FFF73FFA002805D02046BDE869
:1037300010400121FFF743BA10BD10B501004FF052
:10374000804005D000210446FFF701FA0121204600
:10375000BDE81040FEF7FDBF002C01405B4810B5EE
:10376000016821F00F010160016841F0030101606F
:10377000574C0020C4F88001142004F5C07400F0F8
:1037800081F901202060BDE810401E2000F063B9DF
:1037900070B54E480024016821F00F0101600168F6
:1037A00041F0080101604A4D04E0641CE4B20120CC
:1037B00000F051F9D5F8000110B1642CF5D30DE0FB
:1037C000642C0BD2002404E0641CE4B2012000F05D
:1037D00042F9D5F8000118B1642C04D3012070BD62
:1037E000642CF1D3FAE7002070BD70B50024384D89
:1037F00004E0641CE4B2012000F02DF9D5F80001CA
:1038000008B1642CF5D3002404E0641CE4B2012068
:1038100000F021F9D5F8000108B9642CF5D328206F
:1038200000F019F9D5F80001002800D0012070BD82
:1038300070B5002004464006050EFFF7D6FF641C55
:103840002843E4B2082CF6D370BD2DE9FC410D46A7
:103850000646FFF783FFFFF79BFF10B10120BDE88D
:10386000FC8100244FEA0D07FFF7E2FF3855641C86
:10387000E4B2052CF8D39DF800109DF801009DF8E6
:1038800003300A189DF8020003441A449DF80430DE
:103890009A4201D1297030700020E0E738B501214B
:1038A0000420FEF7C6FB0124ADF8004010208DF87F
:1038B000030003208DF8020069460448FEF7CFF9A3
:1038C0000348C0F88041FFF749FF38BD00080140B8
:1038D0000000214238B501210C20FEF7AAFB42204E
:1038E000ADF8000000248DF8034003258DF8025048
:1038F00069460748FEF7B3F90220ADF800008DF8DD
:1039000003408DF8025069460248FEF7A8F938BD19
:1039100000080140000C014010B501218CB00846A0
:10392000FEF77EFB134C2046FDF720FE1248009068
:1039300012480021CDE901010320CDE903018020D7
:10394000059040000690800007902020089000021B
:10395000CDE9090169462046FDF775FE01220221E5
:103960002046FDF7A5FE01212046FDF796FE0CB08E
:1039700010BD0000080002404C24014064000020FB
:1039800010B586B0FFF7A6FF01214802FEF751FBF4
:103990004FF40040FEF7E3FA224C2046FDF74EFCC0
:1039A0006846FDF786FC01218DF8041000208DF893
:1039B00005104FF46021CDE90210009003208DF82E
:1039C000100069462046FDF755FC012203231146ED
:1039D0002046FDF7CFFC0323022206212046FDF7F7
:1039E000C9FC03231A4609212046FDF7C3FC012127
:1039F0002046FDF771FC01212046FDF763FC2046BF
:103A0000FDF77DFC2046FDF77FFC0028FAD120461B
:103A1000FDF781FC2046FDF783FC0028FAD106B0B3
:103A200010BD00000024014010B56FF00400FDF748
:103A3000F2FB204820490068B0FBF1F0C1B21F48FA
:103A400001EB41020170C2EBC1114FF6FF7202EAB5
:103A5000C101418010BD1949097848434FF0E02168
:103A6000486100228A61086940F001000861086924
:103A7000C30701D0C003FAD5086920F0010008612E
:103A80008A6170470D49498848434FF0E0214861F9
:103A900000228A61086940F0010008610869C307D3
:103AA00001D0C003FAD5086920F0010008618A61DD
:103AB000704700002400002000127A006A000020F5
:103AC00038B54FF4A060FDF761FB0B208DF80000C6
:103AD00001248DF8014000208DF802008DF803408C
:103AE0006846FDF758FB25208DF800008DF8014051
:103AF0008DF802408DF803406846FDF74CFB38BD59
:103B00007047AA490A885206FCD5A84AC1B2121DBC
:103B10001180704770B5A54C054680212046FFF7FF
:103B2000ABF90028F9D029462046BDE87040FFF7E0
:103B300042B970B59E4C054680212046FFF79CF99E
:103B40000028F9D029462046BDE87040FFF733B978
:103B5000F0B5054687B0012144F20400FEF769FA8A
:103B6000924E3046FFF72EF87015ADF81000032482
:103B70008DF8124018208F4F8DF8130004A9384695
:103B8000FEF76DF83015ADF8100048208DF81300E1
:103B900004A93846FEF763F825208DF814008DF847
:103BA00015408DF8164001208DF8170005A8FDF787
:103BB000F2FA0020ADF80400ADF80600ADF80800F8
:103BC000ADF80C000C20ADF80A00009569463046AF
:103BD000FFF728F8012240F225513046FFF79FF801
:103BE00001213046FFF791F807B0F0BDF0B505466A
:103BF00087B001210420FEF71CFA01214804FEF7DA
:103C000021FA6B4E3046FEF7DDFF0424ADF810407C
:103C100003208DF812001820664F8DF8130004A9B8
:103C20003846FEF71CF80820ADF810008DF8134058
:103C300004A93846FEF713F826208DF81400002456
:103C40008DF8154001208DF816008DF8170005A895
:103C5000FDF7A1FAADF808400C20ADF80440ADF82E
:103C60000A000095ADF80640ADF80C4069463046B4
:103C7000FEF7D8FF012240F225513046FFF74FF8FA
:103C800001213046FFF741F8AEE770B5054686B032
:103C900001210820FEF7CDF901218804FEF7D2F9B1
:103CA000454E3046FEF78EFF3015ADF8100003206C
:103CB0008DF812001820414C8DF8130004A92046FD
:103CC000FDF7CDFFE014ADF8100004208DF81300CF
:103CD00004A92046FDF7C3FF27208DF81400002417
:103CE0008DF8154001208DF816008DF8170005A8F5
:103CF000FDF751FAADF808400C20ADF80440ADF8DE
:103D00000A000095ADF80640ADF80C406946304613
:103D1000FEF788FF012240F225513046FEF7FFFFF3
:103D200001213046FEF7F1FF06B070BD1F4910B506
:103D30000B1D04E00C886406FCD51A80401C027838
:103D4000002AF7D110BD1C4910B50B1D04E00C88EA
:103D50006406FCD51A80401C0278002AF7D110BDF9
:103D600010B5124C40F225512046FFF78FF800287D
:103D70000BD02046FFF723F82046FFF720F8114A22
:103D80000F4B11785854491C117010BD10B50A4CD6
:103D900040F225512046FFF779F8002804D020464C
:103DA000BDE81040FFF70BB810BD0000003801401F
:103DB000004400400008014000480040000C014061
:103DC0007808002074000020704700001CB50C46E5
:103DD000064B7B4469460090204600F078FB044681
:103DE0000020694600F086FB20461CBD1F0700002E
:103DF0000FB4044910B503AA029800F097FB10BC59
:103E00005DF814FB700000200FB41CB5084B06AA27
:103E10007B4469460090059800F059FB0446002059
:103E2000694600F067FB20461CBC5DF814FB0000EF
:103E3000E106000070B5044685690068C10601D539
:103E4000302600E02026C00707D070BDD4E901214C
:103E500030469047206A401C20626D1EF6D570BD2A
:103E600070B5044685690078C00707D170BDD4E9F4
:103E7000012120209047206A401C20626D1EF6D54B
:103E800070BD09684A0501D540B27047C905FCD527
:103E900000B2704709684A0501D5C0B27047C9052C
:103EA000FCD580B2704770B50C460546012A05D096
:103EB0002878800600D5EA69002302E0012305E0A6
:103EC0005B1C934202D2E05C0028F9D1A869E61895
:103ED000C01AA861286A184428622846FFF7AAFF7A
:103EE00004E0D5E9012114F8010B9047B442F8D35E
:103EF0002846FFF7B5FF70BD2DE9F04106460024C6
:103F000010687529314616A510D0FFF7BAFF0028B2
:103F100002DA404213A507E031688A0701D512A5ED
:103F200002E0490704D511A5012401E0FFF7B2FF23
:103F300000210A2206F1240709E0B0FBF2FCB0FBE5
:103F4000F2F302FB1C00303078541846491C00285C
:103F5000F3D123462A463046BDE8F04100F045BA89
:103F6000000000002D0000002B00000020000000D9
:103F70002DE9FF5F15468A460446DFF8AC80F84419
:103F80000027D8E900103E46CDE9001010E03AF8CD
:103F900016106A4602A800F02FFB411C07D02178BA
:103FA000890603D5E269391891420DD80744761C79
:103FB0002078800602D5E069B84205DDAE42E6DB36
:103FC0003AF816000028E2D1A069C01BA061204683
:103FD000FFF730FFD8E90010CDE90010002017E00E
:103FE0003AF818106A4602A800F006FBB0F1FF3F4D
:103FF00081460BD000250DF1080B05E0D4E9012125
:104000001BF8050090476D1C4D45F7D308F10100E2
:10401000B0428046E4DB206A384420622046FFF745
:104020001FFFBDE8FF9F0000664B000030B4002179
:1040300000F1240408E002F00705D208303542EA16
:104040004372DB086554491C52EA0305F3D1046846
:10405000002310A2250708D504F020040C4304D047
:10406000C46901230CA2641EC46130BC00F0BDB958
:1040700010B5044621461068FFF70CFF02462046A3
:10408000BDE810400023D1E7D21D22F00701D1E99D
:104090000023CBE70000000030000000F0B40D4624
:1040A0000188090502D5214C7C4402E01F4C7C4468
:1040B0000E34002100F1240608E002F00F07120977
:1040C000E75D42EA03721B097754491C52EA030771
:1040D000F3D102780023120704D5702D06D009B160
:1040E000022311342246F0BC00F07FB901231034C2
:1040F000F8E770B504460D4621461068FFF7CAFE82
:10410000024629462046BDE870400023C6E7D21D7E
:1041100022F00703D3E90023C0E70368126843F0E5
:10412000200303600823C3610023B7E7444A00006B
:104130002DE9F05F894604464FF0000ADFF874B1BC
:10414000FB44C0F820A02046E1688847002874D0CE
:10415000252806D0D4E901219047206A401C20621E
:10416000F1E700265F462046E1688847202805469B
:1041700007DB312D05D2781910F8200C08B1064361
:10418000F1E7B00701D526F00406C4F81CA000270B
:10419000C4F818A02A2D09D0284601F093FB38B3A3
:1041A00004EB8708303DC8F8185019E059F8041B93
:1041B000204604EB87029161E1688847012F05469C
:1041C00018D1E069002820DA26F020061DE0D8F892
:1041D000180000EB800005EB40003038C8F81800EC
:1041E0002046E1688847054601F06CFB0028EED1C7
:1041F000012F0AD02E2D08D12046E16888477F1C68
:104200000546022F46F02006C4DBA069002803DA29
:10421000404246F00106A061F00701D026F01006EA
:104220006C2D0BD0682D09D04C2D39D06A2D35D08E
:10423000742D35D07A2D33D016E038E0E1682F4662
:1042400020468847B842054609D16C2F26D04FF446
:104250008060E168064320468847054604E06C2FED
:104260001AD04FF4807006430DB3A5F14100192810
:1042700002D8203546F400664A4629462046266084
:104280004E46FBF76DFF80B101280BD0F61D26F0DE
:10429000070000F1080956E74020E4E78020D8E74E
:1042A0000020D6E706F104094DE7284652E7206AC8
:1042B000BDE8F09FD449000030B505460B462A46BC
:1042C00013F8014B12F8010B08B1A042F8D01CB151
:1042D000002802D06D1CF1E7284630BD10B5431C04
:1042E00002E010F8011B71B18107FAD14FF00132E1
:1042F00002C88C1A8C4314EAC211F9D0C01A0A06FB
:1043000003D0C01E10BDC01A10BD0A0401D0801E0B
:1043100010BD0902FCD0401E10BD10B5203AC0F0FF
:104320000B80B1E81850203AA0E81850B1E81850B6
:10433000A0E81850BFF4F5AF5FEA027C24BFB1E8F3
:104340001850A0E8185044BF18C918C0BDE8104064
:104350005FEA827C24BF51F8043B40F8043B08BF6D
:104360007047D20728BF31F8023B48BF11F8012B34
:1043700028BF20F8023B48BF00F8012B70474FF0E0
:10438000000200B5134694469646203922BFA0E8A5
:104390000C50A0E80C50B1F12001BFF4F7AF0907B1
:1043A00028BFA0E80C5048BF0CC05DF804EB8900A2
:1043B00028BF40F8042B08BF704748BF20F8022BE5
:1043C00011F0804F18BF00F8012B704770477047FD
:1043D0007047704710B500F037F9006810BD10B590
:1043E000044600F031F9046010BD2DE9F0470D4698
:1043F00099469246044600F124080168880604D5CF
:10440000E06921F01001216000E00120A84201DDF7
:10441000471B00E00027A1697A1902EB0900081A7E
:10442000A0612078C00602D42046FFF703FD0026D5
:1044300008E0D4E901211AF806009047206A401CE0
:10444000761C20624E45F4DB2078C0060AD5204653
:10445000FFF7F0FC06E0D4E9012130209047206A04
:10446000401C2062381EA7F10107F4DC07E0D4E904
:10447000012118F805009047206A401C2062281E80
:10448000A5F10105F3DC2046FFF7EAFC20780006E1
:1044900002D50220BDE8F0870120FBE71168026821
:1044A000006A530501D508700AE0D30501D50880DC
:1044B00006E0130603D5C217C1E9000200E0086058
:1044C0000120704701694A1C02610878704700B5F5
:1044D0008FB0CDE901310021059105497944CDE93D
:1044E000031011466846FFF723FE0FB000BD000021
:1044F000E5FFFFFF0A6802F8010B0A60704710B57C
:10450000436913B1AFF3008001E0FFF7CCFC012059
:1045100010BD127800F124010A7000224A700122B5
:10452000EDE711684FF0FF32E9E70000074B70B587
:104530000D467B44FFF7CBFF0446284600F058FCAD
:1045400010B14FF0FF3070BD204670BDCDF5FFFFBC
:1045500010B5436913B1AFF3008001E0FFF708FD28
:10456000012010BD128800F1240182840022C2843F
:104570000122EDE711684FF0FF32E9E72DE9F04144
:104580008046D21D22F007020025D2E90002F5295B
:1045900015A614D0011E72F1000106DA0023D0EB3B
:1045A000030063EB020211A608E0D8F800108B07A5
:1045B00001D50FA602E0490701D50EA60125114637
:1045C000002408F1240704E000F042F830323A55A4
:1045D000641C50EA0102F7D12B4632462146404680
:1045E000BDE8F041FFF701BF000000002D00000012
:1045F0002B0000002000000070B516460C46054652
:1046000000F01AF8036893F80101012806D0FF2C86
:104610000FD8185D68B101202C7070BDD3F8070168
:104620003246214603F2071303442846BDE8704092
:1046300018474FF0FF3070BD10B500F007FC001DAB
:1046400010BD00BF951C000000487047780900208D
:1046500030B5B0F10A024FEA900E71F100034EEA54
:10466000817EB0EB0E0061EB91014FEA101E4EEA25
:10467000017E10EB0E0041EB11114FEA102E4EEAB5
:10468000016E10EB0E0041EB11214FEA104E4EEA85
:10469000014E10EB0E0041EB1141401841F10001B9
:1046A0004FEAD00040EA41704FEAD10110EB80059B
:1046B0004FEA810444EA907444EB01046D1944EB21
:1046C0000404521BA3414FF0000348BF0A3200D537
:1046D00030BD401C41F1000130BD70472DE9FF4F56
:1046E0000C461E464FF0FF378BB0D2E90001DDF8D3
:1046F00060800A908A46C1F30A5505B93D460021FB
:1047000008464FF00000BAF1000F00F4400005DA4F
:1047100000EB80004FF4400101EA50004FEA90594D
:10472000B9F1010F00DDB9460A9850EA4A000ED0EF
:1047300044F61050A5F2FF3545432F14B8F1000F91
:104740001ED07542291E1EDDC9F100021CE0B8F121
:10475000010F4FF0000001D0302103E0F24305E0EB
:104760002154401CB042FBDB304600220021215482
:104770000B99C1F80880C1E900200FB0BDE8F08FA7
:10478000BD1B6D1CDEE74A4600DA694206A800F050
:10479000A1FB06AB93E8070003AB83E80700504694
:1047A0000A9900F04BFC8DE80700A0F500501F3877
:1047B00000900398002D09DD42F21F014A4608448B
:1047C00003A90390684600F0AAFE08E0A0F5005097
:1047D0004A461F3803A90390684600F0B4FE8DE8EE
:1047E00007000004000C03D04FF0FF30410800E048
:1047F0001046B8F1000F03D00022009215461EE0CB
:10480000751E05D4FFF724FF303262556D1EF9D5B1
:10481000B3460122084302D000227F1C04E0207826
:10482000302801D100227F1E002A099786D01DE082
:10483000112D07DAFFF70CFF303262556D1C50EA7C
:104840000102F5D1084302D00098C8B10EE0002162
:10485000681E05E0235C625C63542254401E491CC0
:104860008142F7DBAB46A81B401E0990002004F8EC
:104870000B000B98099AC0F80880C0E9002B7CE770
:1048800011264FF0000859E72DE9F04F88460446FD
:10489000D21D22F0070191B0D1E90001CDE90A0152
:1048A00000F087FF02460B98C00F01D02D2007E0D3
:1048B0002068810701D52B2002E0202101EAC000F9
:1048C000032A099001D0072A05DB0346414620460A
:1048D00000F0C0FA0BE12078800601D5E06900E025
:1048E0000620B8F1650F814606D0B8F1660F18D0E2
:1048F000B8F1670F70D131E00020B9F1110F0090CD
:1049000001DB112301E009F101030AAA01A90CA8A6
:10491000FFF7E4FEDDE90C70002609F1010583468E
:1049200047E001204B4600904FF000470AAA01A93A
:104930000CA8FFF7D3FEDDE90DB00C995D4600260B
:1049400010B909F101000D18B9EB050003D4C0F14D
:10495000FF3609F10105A5EB09002BE0B9F1010FC4
:1049600001DA4FF001090020B9F1110F009048461B
:1049700001DD112300E003460AAA01A90CA8FFF7F4
:10498000ADFEDDE90C704D46002683462078000719
:104990000AD4AB4500DA5D4601A8012D04DD4119BA
:1049A00011F8011C302907D04F4502DA17F1040F26
:1049B00004DA012082460FE06D1EEEE7002F02DCD4
:1049C000ED1B3E4403E0781CA84200DD7D1CB81BB3
:1049D00000F1010A4FF000472078000703D4AA45F0
:1049E00001DB4FF0FF3A0021B7F1004F0DF1430812
:1049F0008DF8431024D002202B23002F01DA7F42B0
:104A00002D230A21021EA0F1010000DC5FB197FBFB
:104A1000F1FC97FBF1F201FB1C7C17460CF1300C0A
:104A200008F801CDEEE7A8F101000370218809051F
:104A300001D5452100E06521A0F1010800F8011C25
:104A400009980FA9A1EB0807FF1D00B1012041192A
:104A500001EBEA70A1693844081A401EA061207871
:104A6000C00602D42046FFF7E5F9099828B1D4E939
:104A700001219047206A401C20622078C00622D580
:104A80002046FFF7D7F91EE0002E04DBB34502DD18
:104A900001A8805D00E03020D4E901219047206A20
:104AA000401C2062761CAAF101005FEA000A0AD1CC
:104AB00000F0CCF9C0680168405CD4E9012190475E
:104AC000206A401C2062281EA5F10105DCDC07E0FD
:104AD000D4E9012118F8010B9047206A401C20629C
:104AE000381EA7F10107F3DC2046FFF7B9F90320D0
:104AF00011B043E62DE9F04F04460D46D21D22F0D9
:104B0000070089B0D0E9009248461746394600F0C0
:104B100050FE0246F80F01D02D2307E020688107E0
:104B200001D52B2302E0202101EAC0038DF82030BB
:104B30000BB1012000E00020032A824601D0072AA1
:104B400004DB2946204600F085F93DE12078800607
:104B500001D40D2500E0E569C7F30A560D2D49DAA9
:104B600000214FEA175B08464FF00000002F00F4C9
:104B7000400007DA00EB80004FF4400100EBD070FA
:104B800001EA60008115012901DD4FF0FF310022AB
:104B90004FEA850CBCF1180F06D31346ACF1180090
:104BA0004FF08052C24003E04FF4801323FA0CF31D
:104BB0000CF10C0CBCF1200F04D3ACF1200C09FA61
:104BC0000CF001E007FA0CF000294FF0004801DD7D
:104BD00018B90FE00ED140450CD319EB02095F4123
:104BE00021B9404502D19F4329EA0209BBEB175F77
:104BF00000D0761C2088000502D57B48784402E06E
:104C000079487844193808AA302302F80A30037C1E
:104C10000AF10101002E0AF1020A53546A4602DC2D
:104C20004FF0300101E04FF031014FF001088DF8F5
:104C3000001002D0A6F2FF3603E059EA470100D087
:104C40006A4E002D02DC2178090704D54FF00208D6
:104C50002E218DF80110C44600210BE0C7F3034359
:104C60003F01C35C491C6D1E02F80830052908F19C
:104C7000010801DA002DF1DC00210CE000EB1973D2
:104C8000491C1B786D1E082902F808304FEA0919E3
:104C900008F1010801DA002DF0DC2178890602D53F
:104CA00014E0A8F10108E04505DD02EB080111F868
:104CB000011C3029F5D0B8F1000F07DD02EB080127
:104CC00011F8011C2E2901D1A8F10108002D05DDE4
:104CD0003E2102F808106D1E08F10108407C002EEC
:104CE00002F8080008F1010804DA2D20764202F8E3
:104CF000080002E02B2002F808000A214FF47A7025
:104D0000864208F101080BDB96FBF0F3303302F822
:104D1000083096FBF0F308F1010800FB136601E090
:104D2000642E0CDB642096FBF0F3303302F808307D
:104D300096FBF0F308F1010800FB136601E00A2E70
:104D400006DB96FBF1F0303002F8080008F10108AC
:104D500096FBF1F001FB1060303002F80800A16909
:104D600008F1010808EB050202EB0A00081AA0612D
:104D70002078C00602D42046FFF75CF8216A08AE0E
:104D800001EB0A00206204E0D4E9012116F8010BCE
:104D90009047BAF1010AF7D22078C00602D5204622
:104DA000FFF748F86E4609E016F8010B3E280FD0D1
:104DB000D4E901219047206A401C2062B8F1010823
:104DC000F2D22046FFF74CF809B00320BDE8F08F7F
:104DD000206A2844206203E0D4E901213020904772
:104DE0006D1EEBD3F8E70000D33F000002FCFFFF8D
:104DF000007B00F080007047004870477809002071
:104E00007546FFF7F9FFAE4605006946534620F0A8
:104E10000700854618B020B5FEF776F8BDE82040BB
:104E20004FF000064FF000074FF000084FF0000B66
:104E300021F00701AC46ACE8C009ACE8C009ACE819
:104E4000C009ACE8C0098D467047000000487047B3
:104E5000980900202DE9F0411F4604460326016809
:104E6000072A01F4006004DB08B116A505E016A5C9
:104E700003E008B115A500E015A521F010002060A1
:104E8000A069C01EA0610FB1401EA0612046FEF7C0
:104E9000D1FF4FB1D4E9012138469047206A401C28
:104EA0002062C01C206206E0206AFAE7D4E90121F2
:104EB00015F8010B9047761EF8D22046FEF7D0FF7A
:104EC000BDE8F0814E414E006E616E00494E4600D5
:104ED000696E66002DE9F047814616468AB0334870
:104EE00078440DC88DE80D0030487844801C03AC30
:104EF0000DC884E80D0041F69B300844372190FB33
:104F0000F1F290FBF1F5A5F1800501FB12041B3CC9
:104F100002D56442012000E00020DFF890A0804626
:104F20000027FA44AAF1BE0A0DE0E00709D0324694
:104F3000684607EB47010AEB810100F004FB8DE8AE
:104F4000070064107F1C002CEFD1184F7F44AC3F4A
:104F500018E0E80714D007EB04100DF1180A90E8E8
:104F60000E008AE80E00C068F04201D1981908903E
:104F7000324606A903A800F0E6FA03AB83E807006F
:104F80006D10641C002DE4D132466946B8F1000F63
:104F900003A802D000F0C3FA01E000F0D4FAC9E996
:104FA0000001C9F808200AB0BDE8F087803D000084
:104FB0000446AFF300802046FBF735F94FF0013C83
:104FC00050F8042B51F8043B9A4221D1A2EB0C0378
:104FD000934313EACC1317D150F8042B51F8043B38
:104FE0009A4215D1A2EB0C03934313EACC130BD1D5
:104FF00050F8042B51F8043B9A4209D1A2EB0C0360
:10500000934313EACC13DBD04FF00000704700BF8E
:10501000D01A01BAB1FA81F101F0180122FA01F0B7
:10502000CB40C1F12001DBB2C0B2C01A2CFA01F3AF
:10503000D11A914311EAC311E6D170475FEA400CDF
:1050400008BF91F0000F4FEA8C234FEAC12243EAD8
:1050500051514FEA1C5018BF00F5F0404FEA3000A4
:1050600018BF41F000415FEA6C5C00F02980BCF1A0
:10507000FF3F08BF40F080407047130C06BF12048A
:105080004FF0100C4FF0000C130E04BF12020CF185
:10509000080C130F04BF12010CF1040C930F04BF92
:1050A00092000CF1020CD30F04BF52000CF1010C62
:1050B00011464FF00002A0F11F00A0EB0C0070475A
:1050C00011F0004F08BF704731F000413FF4D5AFF9
:1050D0000B0C06BF09044FF0100C4FF0000C0B0E28
:1050E00004BF09020CF1080C0B0F04BF09010CF1FD
:1050F000040C8B0F04BF89000CF1020CCB0F04BF12
:1051000049000CF1010CCCF12003A0EB0C0022FAB9
:1051100003F302FA0CF241EA030100F101007047C7
:1051200020F07F4C80EA030023F07F47ACEB0703BD
:1051300003F57C5300F0004003F1FF032DE98049A3
:105140004FEA154B09B44FEA144325EA0B4E24EA03
:1051500003480FF2042606EB132749083E785FEA5E
:10516000320203FB0667C7F5000707FB06F64FEAA6
:1051700054374FEAD64606F1020607FB066CCCF11F
:10518000005C4FEA1C472CEA074C07FB06F40CFBBB
:1051900006F504EB15464FEA961634BF00204FF093
:1051A00000404FEAD13706FB07FC4FEA1C4C0CFBD2
:1051B0000BF7D21B03FB0CF761EB07010CFB0EF79F
:1051C000B0EB074072EB17420CFB08F734BFA2EBC1
:1051D0000742B2EB074261EB17414FEA0C444FEA3A
:1051E000910706FB07FC4FEA1C4C0CFB0BF7B0EBDE
:1051F000C74072EB573203FB0CF734BFA2EBC74238
:10520000B2EBC74261EB57310CFB0EF7B0EBC700B6
:1052100072EB57720CFB08F734BFA2EBC702B2EB7C
:10522000C70261EB5771039F4FEA816141EA921116
:1052300004EBCC044FEAD1374FEA826206FB07FC4D
:1052400042EA90124FEA80604FEA1C4C0CFB0BF7CD
:10525000D21B03FB0CF761EB07010CFB0EF7B0EB65
:10526000074072EB17420CFB08F734BFA2EB074272
:10527000B2EB074261EB17414FEA8C554FEA9107B9
:1052800004EB9C2406FB07FC4FEA1C4C0CFB0BF7C1
:10529000B0EBC74072EB573203FB0CF734BFA2EB05
:1052A000C742B2EBC74261EB57310CFB0EF7B0EBD4
:1052B000C70072EB57720CFB08F734BFA2EBC702B2
:1052C000B2EBC70261EB577115EB4C254FEA8161D8
:1052D00041EA92114FEA82624FEAD13742EA9012D4
:1052E00006FB07FC44F100044FEA80604FEA1C4CC7
:1052F0000CFB0BF7D21B03FB0CF761EB07010CFB5C
:105300000EF7B0EB074072EB17420CFB08F734BF07
:10531000A2EB0742B2EB074261EB174115EB1C15FC
:105320004FEA813141EA92414FEA823242EA9042A9
:105330004FEA80304FEA0C7644F1000448EA034318
:105340004EEA0B484FF0000EB2EB080C71EB03076E
:1053500024BF624639464EEB0E0E4FF0000B00188C
:10536000524149414BEB0B0BB2EB080C71EB0307BD
:105370007BF1000B24BF624639464EEB0E0E4FF018
:10538000000B0018524149414BEB0B0BB2EB080CE0
:1053900071EB03077BF1000B24BF624639464EEBED
:1053A0000E0E51EA020718BF46F0010616EB0E7604
:1053B00055F1000254F1000103D5BDE88901BDE8B3
:1053C0000088BDE88901BDE80048B619524141EBAB
:1053D0000101A3F10103704780807F7E7D7C7B7A91
:1053E0007978777676757473727171706F6E6E6D91
:1053F0006C6C6B6A6A696868676666656464636337
:1054000062616160605F5F5E5E5D5D5C5C5B5B5ABC
:105410005A59595858575756565555555454535329
:1054200052525251515050504F4F4F4E4E4D4D4D84
:105430004C4C4C4B4B4B4A4A4A49494948484847CF
:10544000474747464646454545444444444343430D
:105450004342424242414141002B26D4770021D0B1
:105460001CB54FEA370703B44FF010004FF010019E
:105470004FF000000FBCBDE810400BF1010BBBF179
:10548000010F08BF5FEA170722BF12F1010211F1F5
:1054900001014FF0004143F1000300F0004043EAF6
:1054A00000007047F9D35708DAE746EA064613F1D9
:1054B000400F4FEA16461FDD13F1200FDFBF1643E2
:1054C0000A46002120335B42C8D0C3F1200746EAD8
:1054D000064602FA07F74FEA164646EA0706C3F100
:1054E000200722FA03F201FA07F721FA03F14FF03D
:1054F000000342EA0702B1E746EA020646EA064628
:105500004FEA164646EA0106BCBF46EA0646360C96
:105510004FF000034FF000024FF000019EE72DE92D
:10552000C048934630B491E8380007C831EA400CCF
:1055300048BF34EA430C03D5FFF7F2FDFFF78CFFB9
:10554000F0BCBDE800882DE9C048934630B491E82E
:10555000380007C810F0804F08BF13F0804F03D108
:1055600000F005F8FFF778FFF0BCBDE8008820F0F8
:105570007F4780EA030023F07F4C07EB0C03A3F581
:105580007C5300F00040A3F1FE0392F0000F00F006
:10559000B38095F0000F00F077802DE901494FEAC4
:1055A00011404FEA144621EA004800FB06FC24EAB9
:1055B000064708FB06F607FB08F800FB07F718EBA1
:1055C00006484CEB164C4FEA124B18EB07484FEAD3
:1055D00015464CEB174022EA0B4E0BFB06FC25EA66
:1055E00006470EFB06F607FB0EFE0BFB07F71EEB4E
:1055F000064E4CEB164C4FF000061EEB074E4CEBE4
:10560000174B18EB0B0840F1000018EB0E0B58EB92
:10561000000840F100008F1A4FF000013CBFC94361
:10562000661B14BFB5EB040C00213CBFC943F61B3D
:105630004FEA17444EEA8E0E27EA04454FEA1C470C
:1056400004FB07622CEA074C05FB07F70CFB05F689
:1056500004FB0CFC16EB074642EB174216EB0C461C
:1056600042EB1C421BEB060658EB0202414146EAA4
:105670009E0601D5BDE80189B619524141EB0101F1
:10568000A3F10103BDE801894FEA14454FEA114730
:1056900024EA054621EA074C05FB07F406FB07F759
:1056A0000CFB06F105FB0CFC11EB074144EB174426
:1056B0004FEA124711EB0C4144EB1C4422EA074C21
:1056C00005FB07F206FB07F70CFB06F605FB0CFCD7
:1056D00016EB074642EB174216EB0C4642EB1C4515
:1056E0006A1854F1000148BF7047B619524141EBA6
:1056F0000101A3F10103704795F0000F37D04FEA85
:1057000011424FEA144721EA024624EA074C02FB01
:1057100007F106FB07F70CFB06F402FB0CFC14EB8D
:10572000074441EB17414FEA154714EB0C4441EB9A
:105730001C4125EA074C02FB07F506FB07F70CFBAB
:1057400006F602FB0CFC16EB074645EB174516EB7D
:105750000C4645EB1C42121951F1000148BF70473D
:10576000B619524141EB0101A3F1010370474FEA21
:1057700014454FEA114724EA054621EA074C05FB88
:1057800007F106FB07F70CFB06F24FF0000605FBDE
:105790000CFC12EB074241EB174112EB0C4251EBB0
:1057A0001C4148BF7047921841EB0101A3F101036E
:1057B0007047490050EAC12018BF04204A0D18BFA5
:1057C00040F0010040F2FF72B2EB515F08BF40F0C1
:1057D0000200012808BF052070472DE9F0414F1E47
:1057E00000EBC7010446D1E9000115461E4637F01B
:1057F00006020DD02A46334601F074F87F1E04EBF2
:10580000C703D3E9002300F0C5FD37F00602F1D14C
:10581000022F25D0042F13D0062F18BFBDE8F0812A
:105820002A46334601F05EF8D4E90A2300F0B2FDBF
:105830002A46334601F056F8D4E9082300F0AAFDC1
:105840002A46334601F04EF8D4E9062300F0A2FDC3
:105850002A46334601F046F8D4E9042300F09AFDC5
:105860002A46334601F03EF8D4E9022300F092FDC7
:105870002A46334601F036F8D4E90023BDE8F0416A
:1058800000F088BD002213461046014900F03EBEDC
:105890000000F03F00F07EBD002213461046114686
:1058A00000F034BE40F2013200204FF0E04101F040
:1058B000E9BB0000024A0020110701F0E3BB000031
:1058C00001FDFFFF30380A2801D201207047002077
:1058D000704700002DE9F04D16460F4694B01C4667
:1058E00021F0004123F00042002814BF4FF0010CCA
:1058F0004FF0000C0CEB470CFE4B0CEB03054FEA92
:10590000630C65452BD3350018BF012505EB440515
:105910001D44F94B9D4222D3F84B52EA060C02D0AB
:105920009F4205D148B914B000201946BDE8F08D5A
:10593000002808BF4FF0000C01D04FF0010C0CEB19
:10594000470313F5001F0AD8002E14BF4FF0010CB7
:105950004FF0000C0CEB440313F5001F07D914B0F3
:10596000324623463946BDE8F04DFFF793BFDFF8D6
:1059700090834FF0000A002FB8BF424523DAE14B75
:105980009A42A8BF4FF0020A1DDADC4B93421ADCA0
:10599000DD4B03EB2253142B08DDC3F1340C26FA44
:1059A0000CF303FA0CFCB4450DD108E05EB9C3F169
:1059B000140C22FA0CF303FA0CFC944503D103F007
:1059C0000103C3F1020A51EA00031BD1002C19DACA
:1059D000002F18BFBAF1020F02D0BAF1010F07D0A1
:1059E0000220FEF7FCFC14B0BDE8F04DFFF74ABF03
:1059F0000220FEF7F4FCFFF745FF14B081F00041F0
:105A0000BDE8F08D330070D1424525D107F18042C9
:105A100012F5801201BF00280020B84914B008BF59
:105A2000BDE8F08DB548884207DC002CA1BF1846C0
:105A3000214614B0BDE8F08D07E0002CBFBF18462A
:105A400084F0004114B0BDE8F08DB0497944D1E94B
:105A5000000114B0BDE8F08DDFF8A0C262452AD184
:105A6000002C24DA39B1414517D1002804BF0020A9
:105A700002461CD106E040B10220FEF7B0FCFFF761
:105A800011FF0A46394600F0D7BA9D4A394614B08C
:105A9000002062F31E01BDE8F08D08DA14B03B4629
:105AA000BDE8F04D02460020614600F02FBD14B065
:105AB0003946BDE8F08D414517DAB4F1804F0CD07E
:105AC000A4F10053B3F1FF530FD13B1E0DDB14B013
:105AD0001946BDE8F04D00F0D9BB3B4614B0024674
